{
  "_format": "hh-sol-artifact-1",
  "contractName": "PayMe",
  "sourceName": "contracts/payMe.sol",
  "abi": [
    {
      "inputs": [],
      "stateMutability": "nonpayable",
      "type": "constructor"
    },
    {
      "inputs": [
        {
          "internalType": "address payable",
          "name": "to",
          "type": "address"
        },
        {
          "internalType": "uint256",
          "name": "_amount",
          "type": "uint256"
        },
        {
          "internalType": "string",
          "name": "_message",
          "type": "string"
        }
      ],
      "name": "Pay",
      "outputs": [],
      "stateMutability": "payable",
      "type": "function"
    },
    {
      "inputs": [
        {
          "internalType": "string",
          "name": "_name",
          "type": "string"
        }
      ],
      "name": "addName",
      "outputs": [],
      "stateMutability": "nonpayable",
      "type": "function"
    },
    {
      "inputs": [
        {
          "internalType": "address",
          "name": "user",
          "type": "address"
        },
        {
          "internalType": "uint256",
          "name": "_amount",
          "type": "uint256"
        },
        {
          "internalType": "string",
          "name": "_message",
          "type": "string"
        }
      ],
      "name": "createRequest",
      "outputs": [],
      "stateMutability": "nonpayable",
      "type": "function"
    },
    {
      "inputs": [],
      "name": "getMyHistory",
      "outputs": [
        {
          "components": [
            {
              "internalType": "string",
              "name": "action",
              "type": "string"
            },
            {
              "internalType": "uint256",
              "name": "amount",
              "type": "uint256"
            },
            {
              "internalType": "string",
              "name": "message",
              "type": "string"
            },
            {
              "internalType": "address",
              "name": "otherPartyAddress",
              "type": "address"
            },
            {
              "internalType": "string",
              "name": "otherPartyName",
              "type": "string"
            }
          ],
          "internalType": "struct PayMe.sendReceive[]",
          "name": "",
          "type": "tuple[]"
        }
      ],
      "stateMutability": "view",
      "type": "function"
    },
    {
      "inputs": [],
      "name": "getMyName",
      "outputs": [
        {
          "components": [
            {
              "internalType": "string",
              "name": "name",
              "type": "string"
            },
            {
              "internalType": "bool",
              "name": "hasName",
              "type": "bool"
            }
          ],
          "internalType": "struct PayMe.userName",
          "name": "",
          "type": "tuple"
        }
      ],
      "stateMutability": "view",
      "type": "function"
    },
    {
      "inputs": [],
      "name": "getMyRequests",
      "outputs": [
        {
          "internalType": "address[]",
          "name": "",
          "type": "address[]"
        },
        {
          "internalType": "uint256[]",
          "name": "",
          "type": "uint256[]"
        },
        {
          "internalType": "string[]",
          "name": "",
          "type": "string[]"
        },
        {
          "internalType": "string[]",
          "name": "",
          "type": "string[]"
        }
      ],
      "stateMutability": "view",
      "type": "function"
    },
    {
      "inputs": [],
      "name": "owner",
      "outputs": [
        {
          "internalType": "address",
          "name": "",
          "type": "address"
        }
      ],
      "stateMutability": "view",
      "type": "function"
    },
    {
      "inputs": [
        {
          "internalType": "uint256",
          "name": "_request",
          "type": "uint256"
        }
      ],
      "name": "payRequest",
      "outputs": [],
      "stateMutability": "payable",
      "type": "function"
    }
  ],
  "bytecode": "0x608060405234801561001057600080fd5b50336000806101000a81548173ffffffffffffffffffffffffffffffffffffffff021916908373ffffffffffffffffffffffffffffffffffffffff1602179055506127ab806100606000396000f3fe60806040526004361061007b5760003560e01c80638a49c8691161004e5780638a49c8691461011b5780638da5cb5b1461013757806391eace8b14610162578063ba9a7a9e146101905761007b565b806311456b47146100805780635a148a86146100a957806363d4dd3b146100d457806375a54bc2146100f0575b600080fd5b34801561008c57600080fd5b506100a760048036038101906100a291906119eb565b6101b9565b005b3480156100b557600080fd5b506100be61022f565b6040516100cb9190611c53565b60405180910390f35b6100ee60048036038101906100e99190611ca1565b6104e1565b005b3480156100fc57600080fd5b506101056108b2565b6040516101129190611d26565b60405180910390f35b61013560048036038101906101309190611d86565b6109b6565b005b34801561014357600080fd5b5061014c610a0e565b6040516101599190611e04565b60405180910390f35b34801561016e57600080fd5b50610177610a32565b604051610187949392919061203f565b60405180910390f35b34801561019c57600080fd5b506101b760048036038101906101b291906120cc565b610f45565b005b6000600160003373ffffffffffffffffffffffffffffffffffffffff1673ffffffffffffffffffffffffffffffffffffffff16815260200190815260200160002090508181600001908161020d9190612347565b5060018160010160006101000a81548160ff0219169083151502179055505050565b6060600360003373ffffffffffffffffffffffffffffffffffffffff1673ffffffffffffffffffffffffffffffffffffffff168152602001908152602001600020805480602002602001604051908101604052809291908181526020016000905b828210156104d857838290600052602060002090600502016040518060a00160405290816000820180546102c39061216a565b80601f01602080910402602001604051908101604052809291908181526020018280546102ef9061216a565b801561033c5780601f106103115761010080835404028352916020019161033c565b820191906000526020600020905b81548152906001019060200180831161031f57829003601f168201915b505050505081526020016001820154815260200160028201805461035f9061216a565b80601f016020809104026020016040519081016040528092919081815260200182805461038b9061216a565b80156103d85780601f106103ad576101008083540402835291602001916103d8565b820191906000526020600020905b8154815290600101906020018083116103bb57829003601f168201915b505050505081526020016003820160009054906101000a900473ffffffffffffffffffffffffffffffffffffffff1673ffffffffffffffffffffffffffffffffffffffff1673ffffffffffffffffffffffffffffffffffffffff1681526020016004820180546104479061216a565b80601f01602080910402602001604051908101604052809291908181526020018280546104739061216a565b80156104c05780601f10610495576101008083540402835291602001916104c0565b820191906000526020600020905b8154815290600101906020018083116104a357829003601f168201915b50505050508152505081526020019060010190610290565b50505050905090565b600260003373ffffffffffffffffffffffffffffffffffffffff1673ffffffffffffffffffffffffffffffffffffffff168152602001908152602001600020805490508110610565576040517f08c379a000000000000000000000000000000000000000000000000000000000815260040161055c90612476565b60405180910390fd5b6000600260003373ffffffffffffffffffffffffffffffffffffffff1673ffffffffffffffffffffffffffffffffffffffff168152602001908152602001600020905060008183815481106105bd576105bc612496565b5b90600052602060002090600402019050600081600101549050803414610618576040517f08c379a000000000000000000000000000000000000000000000000000000000815260040161060f90612511565b60405180910390fd5b8160000160009054906101000a900473ffffffffffffffffffffffffffffffffffffffff1673ffffffffffffffffffffffffffffffffffffffff166108fc349081150290604051600060405180830381858888f19350505050158015610682573d6000803e3d6000fd5b50610743338360000160009054906101000a900473ffffffffffffffffffffffffffffffffffffffff1684600101548560020180546106c09061216a565b80601f01602080910402602001604051908101604052809291908181526020018280546106ec9061216a565b80156107395780601f1061070e57610100808354040283529160200191610739565b820191906000526020600020905b81548152906001019060200180831161071c57829003601f168201915b505050505061121d565b82600184805490506107559190612560565b8154811061076657610765612496565b5b906000526020600020906004020183858154811061078757610786612496565b5b90600052602060002090600402016000820160009054906101000a900473ffffffffffffffffffffffffffffffffffffffff168160000160006101000a81548173ffffffffffffffffffffffffffffffffffffffff021916908373ffffffffffffffffffffffffffffffffffffffff160217905550600182015481600101556002820181600201908161081a91906125aa565b506003820181600301908161082f91906125aa565b509050508280548061084457610843612692565b5b6001900381819060005260206000209060040201600080820160006101000a81549073ffffffffffffffffffffffffffffffffffffffff021916905560018201600090556002820160006108989190611795565b6003820160006108a89190611795565b5050905550505050565b6108ba6117d5565b600160003373ffffffffffffffffffffffffffffffffffffffff1673ffffffffffffffffffffffffffffffffffffffff1681526020019081526020016000206040518060400160405290816000820180546109149061216a565b80601f01602080910402602001604051908101604052809291908181526020018280546109409061216a565b801561098d5780601f106109625761010080835404028352916020019161098d565b820191906000526020600020905b81548152906001019060200180831161097057829003601f168201915b505050505081526020016001820160009054906101000a900460ff161515151581525050905090565b8273ffffffffffffffffffffffffffffffffffffffff166108fc839081150290604051600060405180830381858888f193505050501580156109fc573d6000803e3d6000fd5b50610a093384848461121d565b505050565b60008054906101000a900473ffffffffffffffffffffffffffffffffffffffff1681565b6060806060806000600260003373ffffffffffffffffffffffffffffffffffffffff1673ffffffffffffffffffffffffffffffffffffffff1681526020019081526020016000208054905067ffffffffffffffff811115610a9657610a956118c0565b5b604051908082528060200260200182016040528015610ac45781602001602082028036833780820191505090505b5090506000600260003373ffffffffffffffffffffffffffffffffffffffff1673ffffffffffffffffffffffffffffffffffffffff1681526020019081526020016000208054905067ffffffffffffffff811115610b2557610b246118c0565b5b604051908082528060200260200182016040528015610b535781602001602082028036833780820191505090505b5090506000600260003373ffffffffffffffffffffffffffffffffffffffff1673ffffffffffffffffffffffffffffffffffffffff1681526020019081526020016000208054905067ffffffffffffffff811115610bb457610bb36118c0565b5b604051908082528060200260200182016040528015610be757816020015b6060815260200190600190039081610bd25790505b5090506000600260003373ffffffffffffffffffffffffffffffffffffffff1673ffffffffffffffffffffffffffffffffffffffff1681526020019081526020016000208054905067ffffffffffffffff811115610c4857610c476118c0565b5b604051908082528060200260200182016040528015610c7b57816020015b6060815260200190600190039081610c665790505b50905060005b600260003373ffffffffffffffffffffffffffffffffffffffff1673ffffffffffffffffffffffffffffffffffffffff16815260200190815260200160002080549050811015610f2e576000600260003373ffffffffffffffffffffffffffffffffffffffff1673ffffffffffffffffffffffffffffffffffffffff1681526020019081526020016000208281548110610d1e57610d1d612496565b5b906000526020600020906004020190508060000160009054906101000a900473ffffffffffffffffffffffffffffffffffffffff16868381518110610d6657610d65612496565b5b602002602001019073ffffffffffffffffffffffffffffffffffffffff16908173ffffffffffffffffffffffffffffffffffffffff16815250508060010154858381518110610db857610db7612496565b5b602002602001018181525050806002018054610dd39061216a565b80601f0160208091040260200160405190810160405280929190818152602001828054610dff9061216a565b8015610e4c5780601f10610e2157610100808354040283529160200191610e4c565b820191906000526020600020905b815481529060010190602001808311610e2f57829003601f168201915b5050505050848381518110610e6457610e63612496565b5b6020026020010181905250806003018054610e7e9061216a565b80601f0160208091040260200160405190810160405280929190818152602001828054610eaa9061216a565b8015610ef75780601f10610ecc57610100808354040283529160200191610ef7565b820191906000526020600020905b815481529060010190602001808311610eda57829003601f168201915b5050505050838381518110610f0f57610f0e612496565b5b6020026020010181905250508080610f26906126c1565b915050610c81565b508383838397509750975097505050505090919293565b8273ffffffffffffffffffffffffffffffffffffffff163373ffffffffffffffffffffffffffffffffffffffff1603610fb3576040517f08c379a0000000000000000000000000000000000000000000000000000000008152600401610faa90612755565b60405180910390fd5b610fbb6117f1565b33816000019073ffffffffffffffffffffffffffffffffffffffff16908173ffffffffffffffffffffffffffffffffffffffff168152505082816020018181525050818160400181905250600160003373ffffffffffffffffffffffffffffffffffffffff1673ffffffffffffffffffffffffffffffffffffffff16815260200190815260200160002060010160009054906101000a900460ff161561112f57600160003373ffffffffffffffffffffffffffffffffffffffff1673ffffffffffffffffffffffffffffffffffffffff16815260200190815260200160002060000180546110a89061216a565b80601f01602080910402602001604051908101604052809291908181526020018280546110d49061216a565b80156111215780601f106110f657610100808354040283529160200191611121565b820191906000526020600020905b81548152906001019060200180831161110457829003601f168201915b505050505081606001819052505b600260008573ffffffffffffffffffffffffffffffffffffffff1673ffffffffffffffffffffffffffffffffffffffff16815260200190815260200160002081908060018154018082558091505060019003906000526020600020906004020160009091909190915060008201518160000160006101000a81548173ffffffffffffffffffffffffffffffffffffffff021916908373ffffffffffffffffffffffffffffffffffffffff1602179055506020820151816001015560408201518160020190816111fe9190612347565b5060608201518160030190816112149190612347565b50505050505050565b61122561182f565b6040518060400160405280600481526020017f53656e640000000000000000000000000000000000000000000000000000000081525081600001819052508281602001818152505081816040018190525083816060019073ffffffffffffffffffffffffffffffffffffffff16908173ffffffffffffffffffffffffffffffffffffffff1681525050600160008573ffffffffffffffffffffffffffffffffffffffff1673ffffffffffffffffffffffffffffffffffffffff16815260200190815260200160002060010160009054906101000a900460ff16156113d757600160008573ffffffffffffffffffffffffffffffffffffffff1673ffffffffffffffffffffffffffffffffffffffff16815260200190815260200160002060000180546113509061216a565b80601f016020809104026020016040519081016040528092919081815260200182805461137c9061216a565b80156113c95780601f1061139e576101008083540402835291602001916113c9565b820191906000526020600020905b8154815290600101906020018083116113ac57829003601f168201915b505050505081608001819052505b600360008673ffffffffffffffffffffffffffffffffffffffff1673ffffffffffffffffffffffffffffffffffffffff16815260200190815260200160002081908060018154018082558091505060019003906000526020600020906005020160009091909190915060008201518160000190816114559190612347565b506020820151816001015560408201518160020190816114759190612347565b5060608201518160030160006101000a81548173ffffffffffffffffffffffffffffffffffffffff021916908373ffffffffffffffffffffffffffffffffffffffff16021790555060808201518160040190816114d29190612347565b5050506114dd61182f565b6040518060400160405280600781526020017f526563656976650000000000000000000000000000000000000000000000000081525081600001819052508381602001818152505082816040018190525085816060019073ffffffffffffffffffffffffffffffffffffffff16908173ffffffffffffffffffffffffffffffffffffffff1681525050600160008773ffffffffffffffffffffffffffffffffffffffff1673ffffffffffffffffffffffffffffffffffffffff16815260200190815260200160002060010160009054906101000a900460ff161561168f57600160008773ffffffffffffffffffffffffffffffffffffffff1673ffffffffffffffffffffffffffffffffffffffff16815260200190815260200160002060000180546116089061216a565b80601f01602080910402602001604051908101604052809291908181526020018280546116349061216a565b80156116815780601f1061165657610100808354040283529160200191611681565b820191906000526020600020905b81548152906001019060200180831161166457829003601f168201915b505050505081608001819052505b600360008673ffffffffffffffffffffffffffffffffffffffff1673ffffffffffffffffffffffffffffffffffffffff168152602001908152602001600020819080600181540180825580915050600190039060005260206000209060050201600090919091909150600082015181600001908161170d9190612347565b5060208201518160010155604082015181600201908161172d9190612347565b5060608201518160030160006101000a81548173ffffffffffffffffffffffffffffffffffffffff021916908373ffffffffffffffffffffffffffffffffffffffff160217905550608082015181600401908161178a9190612347565b505050505050505050565b5080546117a19061216a565b6000825580601f106117b357506117d2565b601f0160209004906000526020600020908101906117d19190611874565b5b50565b6040518060400160405280606081526020016000151581525090565b6040518060800160405280600073ffffffffffffffffffffffffffffffffffffffff1681526020016000815260200160608152602001606081525090565b6040518060a00160405280606081526020016000815260200160608152602001600073ffffffffffffffffffffffffffffffffffffffff168152602001606081525090565b5b8082111561188d576000816000905550600101611875565b5090565b6000604051905090565b600080fd5b600080fd5b600080fd5b600080fd5b6000601f19601f8301169050919050565b7f4e487b7100000000000000000000000000000000000000000000000000000000600052604160045260246000fd5b6118f8826118af565b810181811067ffffffffffffffff82111715611917576119166118c0565b5b80604052505050565b600061192a611891565b905061193682826118ef565b919050565b600067ffffffffffffffff821115611956576119556118c0565b5b61195f826118af565b9050602081019050919050565b82818337600083830152505050565b600061198e6119898461193b565b611920565b9050828152602081018484840111156119aa576119a96118aa565b5b6119b584828561196c565b509392505050565b600082601f8301126119d2576119d16118a5565b5b81356119e284826020860161197b565b91505092915050565b600060208284031215611a0157611a0061189b565b5b600082013567ffffffffffffffff811115611a1f57611a1e6118a0565b5b611a2b848285016119bd565b91505092915050565b600081519050919050565b600082825260208201905092915050565b6000819050602082019050919050565b600081519050919050565b600082825260208201905092915050565b60005b83811015611a9a578082015181840152602081019050611a7f565b60008484015250505050565b6000611ab182611a60565b611abb8185611a6b565b9350611acb818560208601611a7c565b611ad4816118af565b840191505092915050565b6000819050919050565b611af281611adf565b82525050565b600073ffffffffffffffffffffffffffffffffffffffff82169050919050565b6000611b2382611af8565b9050919050565b611b3381611b18565b82525050565b600060a0830160008301518482036000860152611b568282611aa6565b9150506020830151611b6b6020860182611ae9565b5060408301518482036040860152611b838282611aa6565b9150506060830151611b986060860182611b2a565b5060808301518482036080860152611bb08282611aa6565b9150508091505092915050565b6000611bc98383611b39565b905092915050565b6000602082019050919050565b6000611be982611a34565b611bf38185611a3f565b935083602082028501611c0585611a50565b8060005b85811015611c415784840389528151611c228582611bbd565b9450611c2d83611bd1565b925060208a01995050600181019050611c09565b50829750879550505050505092915050565b60006020820190508181036000830152611c6d8184611bde565b905092915050565b611c7e81611adf565b8114611c8957600080fd5b50565b600081359050611c9b81611c75565b92915050565b600060208284031215611cb757611cb661189b565b5b6000611cc584828501611c8c565b91505092915050565b60008115159050919050565b611ce381611cce565b82525050565b60006040830160008301518482036000860152611d068282611aa6565b9150506020830151611d1b6020860182611cda565b508091505092915050565b60006020820190508181036000830152611d408184611ce9565b905092915050565b6000611d5382611af8565b9050919050565b611d6381611d48565b8114611d6e57600080fd5b50565b600081359050611d8081611d5a565b92915050565b600080600060608486031215611d9f57611d9e61189b565b5b6000611dad86828701611d71565b9350506020611dbe86828701611c8c565b925050604084013567ffffffffffffffff811115611ddf57611dde6118a0565b5b611deb868287016119bd565b9150509250925092565b611dfe81611b18565b82525050565b6000602082019050611e196000830184611df5565b92915050565b600081519050919050565b600082825260208201905092915050565b6000819050602082019050919050565b6000611e578383611b2a565b60208301905092915050565b6000602082019050919050565b6000611e7b82611e1f565b611e858185611e2a565b9350611e9083611e3b565b8060005b83811015611ec1578151611ea88882611e4b565b9750611eb383611e63565b925050600181019050611e94565b5085935050505092915050565b600081519050919050565b600082825260208201905092915050565b6000819050602082019050919050565b6000611f068383611ae9565b60208301905092915050565b6000602082019050919050565b6000611f2a82611ece565b611f348185611ed9565b9350611f3f83611eea565b8060005b83811015611f70578151611f578882611efa565b9750611f6283611f12565b925050600181019050611f43565b5085935050505092915050565b600081519050919050565b600082825260208201905092915050565b6000819050602082019050919050565b6000611fb58383611aa6565b905092915050565b6000602082019050919050565b6000611fd582611f7d565b611fdf8185611f88565b935083602082028501611ff185611f99565b8060005b8581101561202d578484038952815161200e8582611fa9565b945061201983611fbd565b925060208a01995050600181019050611ff5565b50829750879550505050505092915050565b600060808201905081810360008301526120598187611e70565b9050818103602083015261206d8186611f1f565b905081810360408301526120818185611fca565b905081810360608301526120958184611fca565b905095945050505050565b6120a981611b18565b81146120b457600080fd5b50565b6000813590506120c6816120a0565b92915050565b6000806000606084860312156120e5576120e461189b565b5b60006120f3868287016120b7565b935050602061210486828701611c8c565b925050604084013567ffffffffffffffff811115612125576121246118a0565b5b612131868287016119bd565b9150509250925092565b7f4e487b7100000000000000000000000000000000000000000000000000000000600052602260045260246000fd5b6000600282049050600182168061218257607f821691505b6020821081036121955761219461213b565b5b50919050565b60008190508160005260206000209050919050565b60006020601f8301049050919050565b600082821b905092915050565b6000600883026121fd7fffffffffffffffffffffffffffffffffffffffffffffffffffffffffffffffff826121c0565b61220786836121c0565b95508019841693508086168417925050509392505050565b6000819050919050565b600061224461223f61223a84611adf565b61221f565b611adf565b9050919050565b6000819050919050565b61225e83612229565b61227261226a8261224b565b8484546121cd565b825550505050565b600090565b61228761227a565b612292818484612255565b505050565b5b818110156122b6576122ab60008261227f565b600181019050612298565b5050565b601f8211156122fb576122cc8161219b565b6122d5846121b0565b810160208510156122e4578190505b6122f86122f0856121b0565b830182612297565b50505b505050565b600082821c905092915050565b600061231e60001984600802612300565b1980831691505092915050565b6000612337838361230d565b9150826002028217905092915050565b61235082611a60565b67ffffffffffffffff811115612369576123686118c0565b5b612373825461216a565b61237e8282856122ba565b600060209050601f8311600181146123b1576000841561239f578287015190505b6123a9858261232b565b865550612411565b601f1984166123bf8661219b565b60005b828110156123e7578489015182556001820191506020850194506020810190506123c2565b868310156124045784890151612400601f89168261230d565b8355505b6001600288020188555050505b505050505050565b600082825260208201905092915050565b7f4e6f205375636820526571756573740000000000000000000000000000000000600082015250565b6000612460600f83612419565b915061246b8261242a565b602082019050919050565b6000602082019050818103600083015261248f81612453565b9050919050565b7f4e487b7100000000000000000000000000000000000000000000000000000000600052603260045260246000fd5b7f50617920436f727265637420416d6f756e740000000000000000000000000000600082015250565b60006124fb601283612419565b9150612506826124c5565b602082019050919050565b6000602082019050818103600083015261252a816124ee565b9050919050565b7f4e487b7100000000000000000000000000000000000000000000000000000000600052601160045260246000fd5b600061256b82611adf565b915061257683611adf565b925082820390508181111561258e5761258d612531565b5b92915050565b6000815490506125a38161216a565b9050919050565b8181036125b8575050612690565b6125c182612594565b67ffffffffffffffff8111156125da576125d96118c0565b5b6125e4825461216a565b6125ef8282856122ba565b6000601f83116001811461261e576000841561260c578287015490505b612616858261232b565b865550612689565b601f19841661262c8761219b565b96506126378661219b565b60005b8281101561265f5784890154825560018201915060018501945060208101905061263a565b8683101561267c5784890154612678601f89168261230d565b8355505b6001600288020188555050505b5050505050505b565b7f4e487b7100000000000000000000000000000000000000000000000000000000600052603160045260246000fd5b60006126cc82611adf565b91507fffffffffffffffffffffffffffffffffffffffffffffffffffffffffffffffff82036126fe576126fd612531565b5b600182019050919050565b7f53616d65206163636f756e740000000000000000000000000000000000000000600082015250565b600061273f600c83612419565b915061274a82612709565b602082019050919050565b6000602082019050818103600083015261276e81612732565b905091905056fea264697066735822122026810d90a1bdf7acef40d660fdca895e5bf38a6088a296d263b0e1368602749164736f6c63430008120033",
  "linkReferences": {},
  "deployedLinkReferences": {}
}